{
  "contractName": "FundRaise",
  "abi": [
    {
      "constant": false,
      "inputs": [],
      "name": "unpause",
      "outputs": [],
      "payable": false,
      "stateMutability": "nonpayable",
      "type": "function"
    },
    {
      "constant": false,
      "inputs": [],
      "name": "pause",
      "outputs": [],
      "payable": false,
      "stateMutability": "nonpayable",
      "type": "function"
    },
    {
      "constant": true,
      "inputs": [],
      "name": "owner",
      "outputs": [
        {
          "name": "",
          "type": "address"
        }
      ],
      "payable": false,
      "stateMutability": "view",
      "type": "function"
    },
    {
      "constant": false,
      "inputs": [],
      "name": "removeFunds",
      "outputs": [],
      "payable": false,
      "stateMutability": "nonpayable",
      "type": "function"
    },
    {
      "inputs": [],
      "payable": false,
      "stateMutability": "nonpayable",
      "type": "constructor"
    },
    {
      "payable": true,
      "stateMutability": "payable",
      "type": "fallback"
    }
  ],
  "bytecode": "0x6060604052341561000f57600080fd5b336000806101000a81548173ffffffffffffffffffffffffffffffffffffffff021916908373ffffffffffffffffffffffffffffffffffffffff1602179055506102c88061005e6000396000f300606060405260043610610062576000357c0100000000000000000000000000000000000000000000000000000000900463ffffffff1680633f4ba83a146100805780638456cb59146100955780638da5cb5b146100aa578063feac51f5146100ff575b600060149054906101000a900460ff1615151561007e57600080fd5b005b341561008b57600080fd5b610093610114565b005b34156100a057600080fd5b6100a8610188565b005b34156100b557600080fd5b6100bd6101fd565b604051808273ffffffffffffffffffffffffffffffffffffffff1673ffffffffffffffffffffffffffffffffffffffff16815260200191505060405180910390f35b341561010a57600080fd5b610112610222565b005b3373ffffffffffffffffffffffffffffffffffffffff166000809054906101000a900473ffffffffffffffffffffffffffffffffffffffff1673ffffffffffffffffffffffffffffffffffffffff1614151561016c57fe5b60008060146101000a81548160ff021916908315150217905550565b3373ffffffffffffffffffffffffffffffffffffffff166000809054906101000a900473ffffffffffffffffffffffffffffffffffffffff1673ffffffffffffffffffffffffffffffffffffffff161415156101e057fe5b6001600060146101000a81548160ff021916908315150217905550565b6000809054906101000a900473ffffffffffffffffffffffffffffffffffffffff1681565b6000809054906101000a900473ffffffffffffffffffffffffffffffffffffffff1673ffffffffffffffffffffffffffffffffffffffff166108fc3073ffffffffffffffffffffffffffffffffffffffff16319081150290604051600060405180830381858888f19350505050151561029a57600080fd5b5600a165627a7a723058202861f381ffd97e558972b1cf0574c21ba30f269540e42bf0fd754a7d206720210029",
  "source": "pragma solidity ^0.4.17;\n\ncontract FundRaise {\n    address public owner;\n    bool paused;\n\n    // modifiers\n    modifier onlyOwner() {\n        assert(owner == msg.sender);\n        _;\n    }\n\n    modifier whenNotPaused(){\n        require(!paused);\n        _;\n    }\n\n    // @dev constructor function. Sets contract owner\n    function FundRaise() {\n        owner = msg.sender;\n    }\n\n    // fallback function to accept ETH into contract.\n    function () whenNotPaused payable {\n    }\n\n    function pause() public onlyOwner {\n        paused = true;\n    }\n\n    function unpause() public onlyOwner {\n        paused = false;\n    }\n\n    function removeFunds() public {\n        owner.transfer(this.balance);\n    }\n}\n",
  "sourcePath": "/users/renex/workspace/ethBox/web3Box/myDapps/smart-contract-testing-javascript-example-/contracts/FundRaise.sol",
  "compiler": {
    "name": "solc",
    "version": "0.4.18+commit.9cf6e910.Emscripten.clang"
  },
  "schemaVersion": "1.0.1",
  "updatedAt": "2017-12-04T17:32:48.117Z"
}